:1006DC00494E4954004C495354454E494E470051DC
:1006EC00534D530047465744004B465744004B4626
:1006FC005300474653004653594400465345440063
:10070C0046535344004B44004744004552524F5209
:09071C000053415941434F4D00C7
:0608C000011C00011B00F9
:10063900E4F50912087E12000612076912080EE491
:10064900781CF67BFF7A0679DC120835781CE614EB
:1006590060FA24F1601824DF60F224317020781CDC
:10066900760112068DEF70E4781C763180DE12086F
:10067900E1781EEFF6120237E4781CF680CEE478B2
:040689001CF680C813
:10087E00B2C21208A8B2C21208A8B2C21208A8B216
:0C088E00C21208A8B2C21208A8B2C2220E
:100006007580FFE4F59075A0FF75B0FF75C0FF75AC
:0D00160092FFF591C2C3D289D2A8D2AF22C9
:0A08B50000007F057E49DEFEDFFC37
:0108BF002216
:08085A008F148E138D128C1116
:10086200E4F515F516F517F518781174FF12004F17
:0B087200EC4D4E4F60051208B580EE03
:01087D002258
:0C08A8007F117ED07D1BDDFEDEFCDFFA40
:0108B4002221
:030003000207AA47
:1007AA00C0E0C0F0C083C082C0D075D000C000C015
:1007BA0001C002C003C004C005C006C00712042657
:1007CA00D007D006D005D004D003D002D001D00083
:0B07DA00D0D0D082D083D0F0D0E0322D
:100237008F0AE50A700E751B01C2C27BFF7A067929
:10024700E10202EAE51B640160030202E4F51BD246
:10025700C2E50A14B40A00507C90026E75F003A43C
:10026700C58325F0C5837302028C02029402029CA7
:100277000202A40202AC0202B40202BC0202C402DD
:1002870002CC0202D47BFF7A0679EB80567BFF7A99
:100297000679F0804E7BFF7A0679F580467BFF7AF8
:1002A7000679FA803E7BFF7A0679FE80367BFF7AF5
:1002B700077902802E7BFF7A07790780267BFF7AF2
:1002C70007790C801E7BFF7A07791180167BFF7AEE
:1002D700077914800E7BFF7A07791780067BFF7AF0
:0702E70007791D1208352202
:10013B007869616F20726F75207869616F20726FBB
:10014B007500000071696E6720736F6E67206D6FAD
:10015B0020736869000000006775616E2066656E2C
:10016B00207765692064656E670000006B6169200C
:10017B0066656E207765692064656E670000000018
:10018B006B61692066656E67207368616E000000A5
:10019B00000000006775616E2066656E67207368EE
:1001AB00616E00000000000066656E672073686179
:1001BB006E2079692064616E6700000066656E676A
:1001CB00207368616E2065722064616E67000000A9
:1001DB0066656E67207368616E2073616E20646163
:1001EB006E6700006B61692064656E67000000003C
:1001FB0000000000000000006775616E2064656EF2
:10020B00670000000000000000000000000000007C
:10021B0000000000000000000000000000000000D3
:0C022B00000102030405060708090A0090
:10076900D2B57F017E007D007C0012085AC2B57F98
:10077900017E007D007C0012085AD2B57F017E00FF
:100789007D007C0012085AC2A17F017E007D007C99
:100799000012085AD2A17F017E007D007C00020868
:0107A9005AF5
:1002EE007F061208D67D357F171208CB7F0A7E0057
:1002FE007D007C0012085A7F061208D67D037F8986
:10030E001208CB7F057E007D007C0012085A7D43CB
:10031E007FCF1208CB7F057E007D007C0012085A2D
:10032E007D027FCB1208CB7D0A7F111208CBE4FD34
:10033E007F1E1208CB7D3F7F191208CB7D487F1B95
:10034E001208CB7D1F7F1D1208CB7F0A7E007D0019
:10035E007C0012085A7D047FCD1208CB7F057E00EB
:10036E007D007C0012085AE4FD7FB91208CB7D4F48
:0C037E007FCF1208CB7DFF7F6F0208CB01
:1005DA001202EEE4FD7FBD1208CB7D487F17120898
:1005EA00CB7F0A7E007D007C0012085A7D807F3C0A
:1005FA001208CB7D077F3E1208CB7DFF7F38120899
:10060A00CB7D077F3A1208CBE4FD7F401208CB7DF1
:10061A00087F421208CBE4FD7F441208CB7D087F95
:0F062A00461208CB7F017E007D007C0002085A3B
:10042600E4F508C2A87F2B1208D6781DA607E4FDBE
:100436007F291208CBE4FD7F021208CB781DE63037
:10044600E42D7FB21208D6EF642170237FBF120815
:10045600D6BF351B7FBA1208D68F08E508D394009D
:10046600400DE508D394045006781C761080047875
:100476001C7611E4FD7F2B1208CBE4FD7F1C1208CD
:10048600CBE4FD7F291208CBE4FD7F021208CBE402
:10049600FD7F2B1208CBE4FD7FBA1208CBE4FD7F6B
:1004A600BC1208CB7D017F081208CBE4FD7F081241
:0404B60008CBD2A8F5
:0104BA00221F
:10068D00E4F50AF50BF50A1208E77F327E007D00CE
:10069D007C0012085A12038AEF700280117F0A7EC5
:1006AD00007D007C0012085A1204BBEF7010120777
:1006BD00697F327E007D007C0012085A8005750B23
:0E06CD00018009050AE50AC3940540BBAF0B86
:0106DB0022FC
:1007E500E4F510F50F7FB21208D6BF21057510018B
:1007F50080147F0A7E007D007C0012085A050FE5F3
:080805000FC3940A40DFAF109D
:01080D0022C8
:0308E7000205DA2D
:1004BB00C2A87D557F351208CB7D097F1C1208CB56
:1004CB007D207FBD1208CB7D017F081208CB7F01F9
:1004DB007E007D007C0012085AE4FD7F081208CBD9
:1004EB007F017E007D007C0012085A1207E5EF7039
:1004FB0002FF227D0B7F1C1208CB7DFF7FB21208FF
:10050B00CB7F017E007D007C0012085A7D067F3771
:10051B001208CB7F017E007D007C0012085A7D06FD
:10052B007F371208CB7F057E007D007C0012085AB6
:10053B007D107F291208CBE4FD7FBD1208CBD2A81A
:03054B007F01220B
:10038A00750D01E4F50C1207E5EF7005F50D020491
:10039A0023E50C90022B93FD7FC11208CBE4FD7F6D
:1003AA00C31208CB7D047F081208CB7F017E007D33
:1003BA00007C0012085AE4FD7F081208CB7F017EF8
:1003CA00007D007C0012085AE4F50EE50C75F01465
:1003DA00A4243BF582E43401F583E582250EF582F7
:1003EA00E43583F583E493FD600E7F051208CB059F
:1003FA000EE50EC3941440D3AD0E7FB91208CB7D1F
:10040A00FF7FB21208CB7D047F371208CB050CE5BB
:0B041A000CC3940C5003020390AF0DC4
:0104250022B4
:0608E1007FC51208D622BB
:0B08CB00908100EFF0908000EDF02223
:0B08D600908100EFF0908000E0FF2216
:0408C600021925806E
:10080E00759850758920AE19AF1AAB07AA06E4F990
:10081E00F8FF7EE1FDFC12072512003F8F8B8F8DB6
:07082E00D28ED2ACD2AF2242
:030023000208EAE6
:0108EA0032DB
:0E089A00C2ACC2998F993099FDC299D2AC229E
:100835008B0B8A0C890DAB0BAA0CA90D1200266037
:1008450013050DE50D7002050C14F9120026FF12B3
:05085500089A80E22278
:0300000002054EA8
:0C054E00787FE4F6D8FD75811E0205954B
:10002600BB010689828A83E0225002E722BBFE02D8
:09003600E32289828A83E493220B
:10072500C2D5E830E70FB2D5E4C39BFBE49AFAE4FF
:1007350099F9E498F8EC30E717B2D512075B120087
:10074500A9E4C39BFBE49AFAE499F9E498F88003D9
:100755001200A930D50DE4C39FFFE49EFEE49DFD84
:04076500E49CFC22F2
:0E003F00C3E49FFFE49EFEE49DFDE49CFC22D2
:10004D007401FF3395E0FEFDFC080808E6CF2FF69E
:10005D0018E6CE3EF618E6CD3DF618E6CC3CF62277
:10055A00020639E493A3F8E493A34003F68001F278
:10056A0008DFF48029E493A3F85407240CC8C333A2
:10057A00C4540F4420C8834004F456800146F6DF71
:10058A00E4800B01020408102040809008C0E47E39
:10059A00019360BCA3FF543F30E509541FFEE49366
:1005AA00A360010ECF54C025E060A840B8E493A32D
:1005BA00FAE493A3F8E493A3C8C582C8CAC583CA58
:1005CA00F0A3C8C582C8CAC583CADFE9DEE780BE10
:0108CA00002D
:10006D0075F008758200EF2FFFEE33FECD33CDCC4A
:10007D0033CCC58233C5829BED9AEC99E5829840CD
:10008D000CF582EE9BFEED9AFDEC99FC0FD5F0D6AA
:10009D00E4CEFBE4CDFAE4CCF9A88222B800C1B9D4
:1000AD000059BA002DEC8BF084CFCECDFCE5F0CB12
:1000BD00F97818EF2FFFEE33FEED33FDEC33FCEB4B
:1000CD0033FB10D703994004EB99FB0FD8E5E4F906
:1000DD00FA227818EF2FFFEE33FEED33FDEC33FCF3
:1000ED00C933C910D7059BE99A4007EC9BFCE99AE7
:1000FD00F90FD8E0E4C9FAE4CCFB2275F010EF2F2C
:10010D00FFEE33FEED33FDCC33CCC833C810D7072B
:10011D009BEC9AE899400AED9BFDEC9AFCE899F866
:0E012D000FD5F0DAE4CDFBE4CCFAE4C8F922F9
:00000001FF
